:100000000C942A000C9446000C9434000C94340098
:100010000C9434000C9434000C9434000C94340090
:100020000C9434000C9434000C9434000C94340080
:100030000C9434000C9434000C9434000C94340070
:100040000C9434000C9434000C9434000C94340060
:100050000C94340011241FBECFE5D8E0DEBFCDBF25
:100060000E9436000C945E000C94000084B38F7DD7
:1000700084BB8AB380628ABB8AB380618ABB85B73E
:10008000816085BF8BB780648BBFFFCF1F920F92BB
:100090000FB60F9211248F939F93C89B08C09BB3F8
:1000A00080E289278BBB9BB380E189278BBB9F9123
:1000B0008F910F900FBE0F901F901895F894FFCF5F
:00000001FF
