:100000000C942A000C943F000C943F000C943F0089
:100010000C943F000C943F000C943F000C943F0064
:100020000C943F000C943F000C943F000C943F0054
:100030000C943F000C943F000C943F000C943F0044
:100040000C943F000C943F000C943F000C943F0034
:100050000C943F0011241FBECFE5D8E0DEBFCDBF1A
:1000600010E0A0E6B0E0E6E8F4E002C005900D92F2
:10007000AE36B107D9F70E9441000C9441020C94AE
:100080000000CF93DF931F92CDB7DEB719820E9495
:1000900095000E941B016AE080E092E00E946800E7
:1000A0008FE097E20197F1F700C00000BE016F5F9B
:1000B0007F4F80E092E00E947C0080E690E00E940A
:1000C000C201698170E080E090E00E94D501FFCF1D
:1000D000CF93DF93D82FC62F0E94980088EA0E9402
:1000E000A8008D2F0E949E008C2F0E949E000E94CF
:1000F000A500DF91CF910895CF93DF93C82FD62F1E
:100100000E94980088EA0E94A8008C2F0E949E00FE
:100110000E9498008C2F0E949E008D2F0E949E00AE
:100120000E94A500DF91CF9108958CE080B90895D9
:1001300084EA86BF06B607FEFDCF089583B984E83A
:1001400086BF06B607FEFDCF089584E986BF0895F1
:10015000880F82B908959BB3977F9BBB882324F4B3
:100160009BB390689BBB03C09BB39F779BBB86FFF1
:1001700004C09BB390649BBB03C09BB39F7B9BBBA2
:1001800085FF04C09BB390629BBB03C09BB39F7D64
:100190009BBB84FF04C09BB390619BBB03C09BB31C
:1001A0009F7E9BBB9BB394609BBBE7EEF3E03197D4
:1001B000F1F700C000009BB39B7F9BBBE7EEF3E031
:1001C0003197F1F700C0000083FF04C09BB3906833
:1001D0009BBB03C09BB39F779BBB82FF04C09BB3B9
:1001E00090649BBB03C09BB39F7B9BBB81FF04C000
:1001F0009BB390629BBB03C09BB39F7D9BBB80FF67
:1002000004C08BB380618BBB03C08BB38F7E8BBB71
:100210008BB384608BBB87EE93E00197F1F700C04E
:1002200000008BB38B7F8BBBE7EEF3E03197F1F7E8
:1002300000C0000008958AB38C6F8ABB83E00E94DF
:10024000AB008FE99FE00197F1F700C0000083E069
:100250000E94AB008FE99FE00197F1F700C000001A
:1002600083E00E94AB008FE99FE00197F1F700C0A7
:10027000000082E00E94AB0088E20E94AB0088E0B0
:100280000E94AB0081E00E94AB0086E00E94AB00C0
:100290008CE00E94AB008FE19EE40197F1F700C073
:1002A000000008959BB398609BBB882324F49BB304
:1002B00090689BBB03C09BB39F779BBB86FF04C02A
:1002C0009BB390649BBB03C09BB39F7B9BBB85FF91
:1002D00004C09BB390629BBB03C09BB39F7D9BBB41
:1002E00084FF04C09BB390619BBB03C09BB39F7E04
:1002F0009BBB9BB394609BBBE7EEF3E03197F1F7B8
:1003000000C000009BB39B7F9BBBE7EEF3E03197FF
:10031000F1F700C0000083FF04C09BB390689BBB53
:1003200003C09BB39F779BBB82FF04C09BB39064C9
:100330009BBB03C09BB39F7B9BBB81FF04C09BB354
:1003400090629BBB03C09BB39F7D9BBB80FF04C09F
:100350008BB380618BBB03C08BB38F7E8BBB8BB3A6
:1003600084608BBB87EE93E00197F1F700C000003B
:100370008BB38B7F8BBBE7EEF3E03197F1F700C0D7
:10038000000008950F931F93CF938C01C0E003C02A
:100390000E945201CF5FF801EC0FF11D80818111A5
:1003A000F7CFCF911F910F9108951F93CF93DF93B4
:1003B000CDB7DEB72A970FB6F894DEBF0FBECDBF1C
:1003C0006115710581059105D1F480E30E94520108
:1003D0002CC02AE030E040E050E00E941F02E1E043
:1003E000F0E0EC0FFD1FE10FF11D17FDFA95605DC8
:1003F0006083622F732F842F952F1F5F01C010E041
:10040000611571058105910521F711500CC0E1E0DE
:10041000F0E0EC0FFD1FE10FF11D17FDFA95808153
:100420000E9452011150112394F72A960FB6F894A6
:10043000DEBF0FBECDBFDF91CF911F910895A1E226
:100440001A2EAA1BBB1BFD010DC0AA1FBB1FEE1F4E
:10045000FF1FA217B307E407F50720F0A21BB30B99
:10046000E40BF50B661F771F881F991F1A9469F715
:1004700060957095809590959B01AC01BD01CF0171
:060480000895F894FFCF7F
:0E0486005468652056616C7565203D200000AD
:00000001FF
