S01100007370695F736C6176652E737265634D
S11300000C942A000C9434000C9434000C943400A6
S11300100C9434000C9434000C9434000C9434008C
S11300200C9434000C9434000C9434000C9434007C
S11300300C94E7010C9434000C9434000C943400B8
S11300400C9434000C9434000C9434000C9434005C
S11300500C94340011241FBECFE5D8E0DEBFCDBF21
S11300600E949A010C9413020C9400009BB3977F96
S11300709BBB882324F49BB390689BBB03C09BB3B6
S11300809F779BBB86FF04C09BB390649BBB03C05C
S11300909BB39F7B9BBB85FF04C09BB390629BBBC0
S11300A003C09BB39F7D9BBB84FF04C09BB3906143
S11300B09BBB03C09BB39F7E9BBB9BB394609BBBCA
S11300C0EFE9FFE03197F1F700C000009BB39B7F9D
S11300D09BBBEFE9FFE03197F1F700C0000083FF1D
S11300E004C09BB390689BBB03C09BB39F779BBB2F
S11300F082FF04C09BB390649BBB03C09BB39F7BF4
S11301009BBB81FF04C09BB390629BBB03C09BB3AA
S11301109F7D9BBB80FF04C08BB380618BBB03C0FE
S11301208BB38F7E8BBB8BB384608BBB8FE99FE0DB
S11301300197F1F700C000008BB38B7F8BBBEFE915
S1130140FFE03197F1F700C0000008958AB38C6F87
S11301508ABB83E00E9436008FE79EE30197F1F7A4
S113016000C0000083E00E9436008FE79EE3019701
S1130170F1F700C0000083E00E9436008FE79EE3A1
S11301800197F1F700C0000082E00E94360088E287
S11301900E94360088E00E94360081E00E9436000A
S11301A086E00E9436008CE00E9436009FEF29EF23
S11301B080E0915020408040E1F700C000000895A5
S11301C09BB398609BBB882324F49BB390689BBB30
S11301D003C09BB39F779BBB86FF04C09BB3906413
S11301E09BBB03C09BB39F7B9BBB85FF04C09BB39E
S11301F090629BBB03C09BB39F7D9BBB84FF04C0E9
S11302009BB390619BBB03C09BB39F7E9BBB9BB383
S113021094609BBBEFE9FFE03197F1F700C0000069
S11302209BB39B7F9BBBEFE9FFE03197F1F700C0E5
S1130230000083FF04C09BB390689BBB03C09BB3C7
S11302409F779BBB82FF04C09BB390649BBB03C09E
S11302509BB39F7B9BBB81FF04C09BB390629BBB02
S113026003C09BB39F7D9BBB80FF04C08BB38061A5
S11302708BBB03C08BB38F7E8BBB8BB384608BBB78
S11302808FE99FE00197F1F700C000008BB38B7FEB
S11302908BBBEFE9FFE03197F1F700C00000089550
S11302A01F93CF93DF93CDB7DEB72A970FB6F89499
S11302B0DEBF0FBECDBF6115710581059105D1F477
S11302C080E30E94E0002CC02AE030E040E050E0EF
S11302D00E94F101E1E0F0E0EC0FFD1FE10FF11DE0
S11302E017FDFA95605D6083622F732F842F952F1D
S11302F01F5F01C010E0611571058105910521F7AB
S113030011500CC0E1E0F0E0EC0FFD1FE10FF11D16
S113031017FDFA9580810E94E0001150112394F793
S11303202A960FB6F894DEBF0FBECDBFDF91CF91F2
S11303301F9108950E94A6002FEF81EE94E02150B2
S113034080409040E1F700C000008CE00E9436003D
S11303502FEF81EE94E0215080409040E1F700C0FF
S1130360000081E00E9436002FEF81EE94E02150DE
S113037080409040E1F700C000000E94DD012FEFB3
S113038081EE94E0215080409040E1F700C00000ED
S113039080E80E9436000E94E301682F70E080E04C
S11303A090E00E9450012FEF81EE94E021508040B4
S11303B09040E1F700C00000E2CF87B3806487BBC0
S11303C080E48DB90895779BFECF8FB108951F9275
S11303D00F920FB60F9211240F900FBE0F901F9023
S11303E01895A1E21A2EAA1BBB1BFD010DC0AA1F62
S11303F0BB1FEE1FFF1FA217B307E407F50720F08A
S1130400A21BB30BE40BF50B661F771F881F991F04
S11304101A9469F760957095809590959B01AC014D
S10D0420BD01CF010895F894FFCF49
S9030000FC
