:100000000C942A000C943C000C943C000C943C0092
:100010000C943C000C943C000C943C000C943C0070
:100020000C943C000C943C000C943C000C943C0060
:100030000C943C000C943C000C943C000C943C0050
:100040000C943C000C943C000C943C000C943C0040
:100050000C943C0011241FBECFE5D8E0DEBFCDBF1D
:1000600020E0A0E6B0E001C01D92A837B207E1F79A
:100070000E9487010C94F3010C940000683008F092
:1000800078C0843008F077C0813011F130F08230D0
:10009000D1F1833009F452C070C0413061F42AB309
:1000A00081E090E002C0880F991F6A95E2F7822BE9
:1000B0008ABB81E008952AB381E090E002C0880FF6
:1000C000991F6A95E2F7809582238ABB81E00895A3
:1000D000413061F427B381E090E002C0880F991F9E
:1000E0006A95E2F7822B87BB81E0089527B381E010
:1000F00090E002C0880F991F6A95E2F780958223ED
:1001000087BB81E00895413061F424B381E090E041
:1001100002C0880F991F6A95E2F7822B84BB81E0A9
:10012000089524B381E090E002C0880F991F6A957A
:10013000E2F78095822384BB81E00895413061F429
:1001400021B381E090E002C0880F991F6A95E2F721
:10015000822B81BB81E0089521B381E090E002C051
:10016000880F991F6A95E2F78095822381BB81E011
:10017000089580E0089580E0089581E00895843036
:10018000D0F56830D0F5813091F028F08230D9F088
:10019000833029F134C02BB381E090E002C0880F96
:1001A000991F6A95E2F782278BBB81E0089528B3F7
:1001B00081E090E002C0880F991F6A95E2F78227DC
:1001C00088BB81E0089525B381E090E002C0880FEC
:1001D000991F6A95E2F7822785BB81E0089522B3D3
:1001E00081E090E002C0880F991F6A95E2F78227AC
:1001F00082BB81E0089580E0089580E0089581E069
:1002000008958FB780688FBF0895CF938091600065
:100210009091610001969093610080936000C0E02E
:1002200021C02C2F30E0F901EE0FFF1FEE0FFF1F52
:10023000EE59FF4F60817181809160009091610063
:100240000E94DF01892B69F4220F331F220F331F15
:10025000F901EE59FF4F0280F381E02D309709F04C
:100260000995CF5FC530E8F2CF910895CF93DF9322
:1002700000D000D0CDB7DEB781E089831A8289EF44
:100280008B8383E08C83CE0101960E94AE0185E0D2
:1002900091E00E94DA010E9401010F900F900F90EF
:1002A0000F90DF91CF9108958530E0F4411551050D
:1002B000D9F090E0FC01EE0FFF1FEE0FFF1FEE598B
:1002C000FF4F22813381232B89F4880F991F880FD8
:1002D000991FFC01EE59FF4F718360835383428362
:1002E00080E0089581E0089581E0089581E0089517
:1002F00067E081E00E94BF00089564E080E00E9412
:10030000BF00089565E080E00E94BF00089541E0CD
:1003100067E081E00E943E0041E064E080E00E94EE
:100320003E0041E065E080E00E943E0048E751E089
:1003300064EF71E080E00E9454014DE751E068EE07
:1003400073E081E00E94540142E851E060ED77E003
:1003500082E00E9454010E943601FFCFFC0115BCCF
:1003600085B5806885BD85B59081292F30E0220F45
:10037000331F220F331F220F331F282B25BD8081EF
:1003800081110BC0818184BD19BE89B7806489BF8A
:1003900095B58381892B85BD0895818184BD828136
:1003A00083BD19BE89B7806889BF95B58381892BC4
:1003B00085BD089590937700809376000895AA1BD9
:1003C000BB1B51E107C0AA1FBB1FA617B70710F040
:1003D000A61BB70B881F991F5A95A9F78095909572
:0A03E000BC01CD010895F894FFCF91
:00000001FF
