:100000000C942A000C9447000C9447000C94470071
:100010000C9447000C9447000C9447000C94470044
:100020000C9447000C9447000C9447000C94470034
:100030000C942F020C9447000C9447000C9447003A
:100040000C9447000C9447000C9447000C94470014
:100050000C94470011241FBECFE5D8E0DEBFCDBF12
:1000600010E0A0E6B0E0E6EFF4E002C005900D92EB
:10007000A637B107D9F720E0A6E7B0E001C01D928E
:10008000A837B207E1F70E94C7010C9479020C94DB
:1000900000009BB3977F9BBB882324F49BB390689D
:1000A0009BBB03C09BB39F779BBB86FF04C09BB3E6
:1000B00090649BBB03C09BB39F7B9BBB85FF04C02D
:1000C0009BB390629BBB03C09BB39F7D9BBB84FF94
:1000D00004C09BB390619BBB03C09BB39F7E9BBB43
:1000E0009BB394609BBBEFE9FFE03197F1F700C051
:1000F00000009BB39B7F9BBBEFE9FFE03197F1F7DB
:1001000000C0000083FF04C09BB390689BBB03C08A
:100110009BB39F779BBB82FF04C09BB390649BBB48
:1001200003C09BB39F7B9BBB81FF04C09BB39062CA
:100130009BBB03C09BB39F7D9BBB80FF04C08BB365
:1001400080618BBB03C08BB38F7E8BBB8BB3846012
:100150008BBB8FE99FE00197F1F700C000008BB3E4
:100160008B7F8BBBEFE9FFE03197F1F700C0000018
:1001700008958AB38C6F8ABB83E00E9449008FE7A1
:100180009EE30197F1F700C0000083E00E94490060
:100190008FE79EE30197F1F700C0000083E00E9423
:1001A00049008FE79EE30197F1F700C0000082E06D
:1001B0000E94490088E20E94490088E00E944900AC
:1001C00081E00E94490086E00E9449008CE00E9484
:1001D00049009FEF29EF80E0915020408040E1F7F7
:1001E00000C0000008959BB398609BBB882324F453
:1001F0009BB390689BBB03C09BB39F779BBB86FF61
:1002000004C09BB390649BBB03C09BB39F7B9BBB11
:1002100085FF04C09BB390629BBB03C09BB39F7DD3
:100220009BBB84FF04C09BB390619BBB03C09BB38B
:100230009F7E9BBB9BB394609BBBEFE9FFE0319734
:10024000F1F700C000009BB39B7F9BBBEFE9FFE091
:100250003197F1F700C0000083FF04C09BB39068A2
:100260009BBB03C09BB39F779BBB82FF04C09BB328
:1002700090649BBB03C09BB39F7B9BBB81FF04C06F
:100280009BB390629BBB03C09BB39F7D9BBB80FFD6
:1002900004C08BB380618BBB03C08BB38F7E8BBBE1
:1002A0008BB384608BBB8FE99FE00197F1F700C0AF
:1002B00000008BB38B7F8BBBEFE9FFE03197F1F749
:1002C00000C0000008950F931F93CF938C01C0E0EE
:1002D00003C00E94F300CF5FF801EC0FF11D808195
:1002E0008111F7CFCF911F910F9108951F93CF9355
:1002F000DF93CDB7DEB72A970FB6F894DEBF0FBEF7
:10030000CDBF6115710581059105D1F480E30E948F
:10031000F3002CC02AE030E040E050E00E94570299
:10032000E1E0F0E0EC0FFD1FE10FF11D17FDFA9584
:10033000605D6083622F732F842F952F1F5F01C034
:1003400010E0611571058105910521F711500CC070
:10035000E1E0F0E0EC0FFD1FE10FF11D17FDFA9554
:1003600080810E94F3001150112394F72A960FB652
:10037000F894DEBF0FBECDBFDF91CF911F910895DE
:10038000682F70E080E090E00E94760108950E945E
:10039000B9002FEF81EE94E0215080409040E1F7CA
:1003A00000C000008CE00E9449002FEF81EE94E035
:1003B000215080409040E1F700C0000081E00E94A1
:1003C00049002FEF81EE94E0215080409040E1F70A
:1003D00000C000000E94160280E690E00E946301C7
:1003E00080EC0E9449008EE690E00E9463012FEFAE
:1003F00081EE94E0215080409040E1F700C0000081
:1004000080EC91E00E942A02C0E088B38F7E88BB16
:100410008C2F0E942602CF5F2FEF87E893E12150B7
:1004200080409040E1F700C00000EFCF87B38062CA
:1004300087BB87B3806187BB87B3806887BB8DB17B
:1004400080618DB98DB180648DB908957699FECFA4
:100450008FB90895909377008093760008951F9246
:100460000F920FB60F9211242F933F934F935F93E8
:100470006F937F938F939F93AF93BF93EF93FF936C
:100480008FB1E0917600F09177000995FF91EF919F
:10049000BF91AF919F918F917F916F915F914F919C
:1004A0003F912F910F900FBE0F901F901895A1E2D2
:1004B0001A2EAA1BBB1BFD010DC0AA1FBB1FEE1FDE
:1004C000FF1FA217B307E407F50720F0A21BB30B29
:1004D000E40BF50B661F771F881F991F1A9469F7A5
:1004E00060957095809590959B01AC01BD01CF0101
:0604F0000895F894FFCF0F
:1004F60053746172742054686520535049005072D9
:060506006F6772616D00D9
:00000001FF
