S00B00004C43442E7372656346
S11300000C942A000C9447000C9447000C9447006D
S11300100C9447000C9447000C9447000C94470040
S11300200C9447000C9447000C9447000C94470030
S11300300C9447000C9447000C9447000C94470020
S11300400C9447000C9447000C9447000C94470010
S11300500C94470011241FBECFE5D8E0DEBFCDBF0E
S113006010E0A0E6B0E0ECE0FFE002C005900D92E5
S1130070A83AB107D9F720E0A8EAB0E001C01D9280
S1130080A23BB207E1F70E94E4020C9484070C94AB
S1130090000084B38FEF84BB81B381BB089585B323
S11300A08F7D85BB85B3806185BB85B3886085BB47
S11300B085B3846085BB879B5CC0869B5CC0859B45
S11300C05CC0839B5CC08FE99FE00197F1F700C09F
S11300D0000085B3806285BB85B38F7E85BB85B305
S11300E0886085BB85B3846085BB879B4AC0869B3B
S11300F04AC0859B4AC0839B4AC08FE99FE0019711
S1130100F1F700C0000085B3806285BB85B38061D0
S113011085BB85B3877F85BB85B3846085BB879B9F
S113012038C0869B38C0859B38C0839B38C08FE914
S11301309FE00197F1F700C0000085B3806285BBA2
S113014085B3806185BB85B3886085BB85B38B7FB0
S113015085BB879B26C0869B26C0859B26C0839B28
S113016026C08FE99FE00197F1F700C0000080E00E
S1130170089587E3089584E3089581E3089583E46B
S1130180089588E3089585E3089582E3089583E458
S1130190089589E3089586E3089583E308958DE33C
S11301A0089584E408958AE208958DE208958BE227
S11301B00895860F971FBC0180E090E008959C018C
S11301C0269FC001279F900D369F900D1124BC01DE
S11301D080E090E008959093AB008093AA00089586
S11301E09093A9008093A80008958091AA0090910B
S11301F0AB0008951092AB001092AA0008951092DB
S1130200A9001092A80008958B3261F08D3261F03C
S11302108A3261F0843461F08D3361F0833461F4A7
S113022080E0089580E0089580E0089580E00895D6
S113023080E0089580E0089581E008959BB3977F5E
S11302409BBB882324F498B3906198BB03C098B3F4
S11302509F7E98BB86FF04C098B3946098BB03C08C
S113026098B39B7F98BB85FF04C098B3926098BBFA
S113027003C098B39D7F98BB84FF04C098B391607A
S113028098BB03C098B39E7F98BB9BB394609BBB01
S1130290EFE9FFE03197F1F700C000009BB39B7FCB
S11302A09BBBEFE9FFE03197F1F700C0000083FF4B
S11302B004C098B3906198BB03C098B39F7E98BB69
S11302C082FF04C098B3946098BB03C098B39B7F2B
S11302D098BB81FF04C098B3926098BB03C098B3E5
S11302E09D7F98BB80FF04C088B3816088BB03C036
S11302F088B38E7F88BB8BB384608BBB8FE99FE010
S11303000197F1F700C000008BB38B7F8BBBEFE943
S1130310FFE03197F1F700C0000008958AB38C60C4
S11303208ABB87B3876187BB88E20E941E018FE97D
S11303309FE00197F1F700C0000081E00E941E01D8
S11303408FE99FE00197F1F700C0000082E00E946E
S11303501E018FE99FE00197F1F700C0000086E0DD
S11303600E941E018FE99FE00197F1F700C0000091
S113037080E80E941E018FE99FE00197F1F700C019
S1130380000008959BB398609BBB882324F498B322
S1130390906198BB03C098B39F7E98BB86FF04C04E
S11303A098B3946098BB03C098B39B7F98BB85FFB8
S11303B004C098B3926098BB03C098B39D7F98BB68
S11303C084FF04C098B3916098BB03C098B39E7F28
S11303D098BB9BB394609BBBEFE9FFE03197F1F7C7
S11303E000C000009BB39B7F9BBBEFE9FFE031970C
S11303F0F1F700C0000083FF04C098B3906198BB7C
S113040003C098B39F7E98BB82FF04C098B39460E6
S113041098BB03C098B39B7F98BB81FF04C098B37B
S1130420926098BB03C098B39D7F98BB80FF04C0C3
S113043088B3816088BB03C088B38E7F88BB8BB3CD
S113044084608BBB8FE99FE00197F1F700C0000047
S11304508BB38B7F8BBBEFE9FFE03197F1F700C0E3
S1130460000008952F923F924F925F926F927F9275
S11304708F929F92AF92BF92CF92DF92EF92FF92B0
S11304800F931F93CF93DF93CDB7DEB72D970FB69E
S1130490F894DEBF0FBECDBF2B873C874D87852EDA
S11304A0762E672E382E292EA0E00E94800419F49F
S11304B080E30E94C201912C34C0492C092C000C09
S11304C055080F2EFAE0AF2EF02DB12CC12CD12CF3
S11304D0E12CF12C00E010E02B853C854D85582D56
S11304E0672D762D832D922D0E942104E1E0F0E00A
S11304F0EC0FFD1FE40DF51D205D20832B853C854D
S11305004D85582D672D762D832D922D0E94230421
S11305102B873C874D87852E762E672E382E292EE5
S113052093942B853C854D85582D672D762D832DF1
S1130530922DA0E00E94800409F0BFCF9A940CC0D1
S1130540E1E0F0E0EC0FFD1FE90DF11D97FCFA95D9
S113055080810E94C2019A94992094F72D960FB637
S1130560F894DEBF0FBECDBFDF91CF911F910F91E5
S1130570FF90EF90DF90CF90BF90AF909F908F90BF
S11305807F906F905F904F903F902F9008950F93BE
S11305901F93CF938C01C0E003C00E94C201CF5FC0
S11305A0F801EC0FF11D80818111F7CFCF911F91DC
S11305B00F91089581E00E941E018FE39CE9019749
S11305C0F1F700C0000008950E948E010E944900C6
S11305D02FEF81EE94E0215080409040E1F700C07D
S11305E000008CE00E941E012FEF81EE94E0215068
S11305F080409040E1F700C0000081E00E941E01AD
S11306008FE99FE00197F1F700C0000081E690E0D8
S11306100E94C7029FEF29E688E191502040804064
S1130620E1F700C0000081E00E941E018FE39CE915
S11306300197F1F700C0000080E890E00E94C70233
S11306409FEF29E688E1915020408040E1F700C007
S1130650000081E00E941E018FE39CE90197F1F7FD
S113066000C0000083E990E00E948C04B12C00E0FB
S113067011E0D1E00E944F00C82F8823D9F38334BE
S113068019F580E2809360000E94FA000E94FF0046
S11306900E94DA028FE39CE90197F1F700C00000A1
S11306A089E990E00E94C7029FEF29E688E1915012
S11306B020408040E1F700C000000E94DA02B12C23
S11306C000E011E0D1E0D6CF8FE99FE00197F1F788
S11306D000C000008C2F0E94C2010E944F00C81766
S11306E0E1F38FE99FE00197F1F700C000008C2F40
S11306F00E9404018823D9F0011109C0CD9F700123
S11307001124DD0F8D2F880F880FD80F09C0C19FCA
S113071060011124812F880F182F110F110F180F4A
S1130720C7010E94EB00C6010E94F000A3CFCD33A5
S113073009F07FC0013009F09DCF809160008823CB
S113074009F498CF8B3231F50E94DA028FE99FE0E9
S11307500197F1F700C000000E94F5004C010E94CF
S1130760F500B4010E94D9001B012C01262F332D62
S1130770442D552D60E070E080E090E00E9432024C
S11307809FEF23E284EF915020408040E1F700C0C6
S1130790000070CF8D3221F50E94DA028FE99FE0CC
S11307A00197F1F700C000000E94F5004C010E947F
S11307B0F500A401481B590B242F352F40E050E0CD
S11307C060E070E080E090E00E9432029FEF23E25C
S11307D084EF915020408040E1F700C000004ACFF0
S11307E08A3209F047CF0E94DA028FE99FE001972D
S11307F0F1F700C000000E94F5004C010E94F500D2
S1130800B4010E94DF001B012C01262F332D442D3F
S1130810552D60E070E080E090E00E9432029FEF8E
S113082023E284EF915020408040E1F700C00000B3
S113083021CFB1101FCFC0936000BB24B39401E05B
S113084019CF689401C0E8948F929F92CF93DF935D
S11308500E942F04DF91CF919F908F900895882458
S11308609924F401E401B0E49F93AA279A158B0418
S11308709C04ED05FE05CF05D007A10798F4AD2F24
S1130880DC2FCF2FFE2FE92D982C892E982F872F20
S1130890762F652F542F432F322F2227B85031F74C
S11308A0BF9127C01B2EBF91BB27220F331F441FAC
S11308B0551F661F771F881F991F881C991CEE1FE0
S11308C0FF1FCC1FDD1FAA1FBB1F8A149B04EC054E
S11308D0FD05CE05DF05A007B10748F08A189B087F
S11308E0EC09FD09CE09DF09A00BB10B21601A94B4
S11308F0E1F62EF49401AF01BE01CD01000C089580
S11309000024A7FD00942A17300540055005600512
S113091070058005900508950F931F93CF93DF937F
S1130920E091AE00F091AF00238121FF1BC08C0148
S1130930D0E0C0E0F80181918F016091AE00709128
S1130940AF00DB011896ED91FC911997882331F0E3
S11309500995892B79F3DFEFCFEFECCF8AE0099586
S1130960892B19F08FEF9FEF02C08D2F9C2FDF9101
S1130970CF911F910F910895ABE0B0E0E2ECF4E069
S11309800C944D076C017B018A01FC0117821682CD
S1130990838181FFCCC1CE0101963C01F601938194
S11309A0F70193FD859193FF81917F01882309F4D9
S11309B0BAC1853239F493FD859193FF81917F010A
S11309C0853229F4B60190E00E94B306E7CF912C5A
S11309D0212C312CFFE1F315D8F08B3279F038F467
S11309E0803279F08332A1F4232D20611DC08D3231
S11309F061F0803369F4232D216016C0832D826059
S1130A00382EE32DE4603E2E2AC0F32DF8601DC07D
S1130A1037FC2DC020ED280F2A3040F08E32B9F477
S1130A2036FC81C1232D2064322E19C036FE06C047
S1130A308AE0989E200D1124922E11C0EAE02E9E89
S1130A40200D1124222EF32DF0623F2E08C08C3687
S1130A5021F4832D8068382E02C0883641F4F701D2
S1130A6093FD859193FF81917F018111B3CF982FDD
S1130A709F7D9554933028F40C5F1F4F9FE3998317
S1130A800DC0833631F0833771F0833509F059C0D6
S1130A9021C0F801808189830E5F1F4F88248394CD
S1130AA0912C530113C02801F2E04F0E511CF801A0
S1130AB0A080B18036FE03C0692D70E002C06FEFE4
S1130AC07FEFC5010E94A8064C018201F32DFF7738
S1130AD03F2E16C0280122E0420E511CF801A080CE
S1130AE0B18036FE03C0692D70E002C06FEF7FEF66
S1130AF0C5010E949D064C01F32DF0683F2E820132
S1130B0033FC1BC0822D90E088169906B0F4B60120
S1130B1080E290E00E94B3062A94F4CFF50137FCFA
S1130B20859137FE81915F01B60190E00E94B30682
S1130B3021102A9421E0821A91088114910471F7FA
S1130B40E8C0843611F0893641F5F80137FE07C054
S1130B5060817181828193810C5F1F4F08C0608125
S1130B607181072E000C880B990B0E5F1F4FF32D1C
S1130B70FF763F2E97FF09C09095809570956195FB
S1130B807F4F8F4F9F4FF0683F2E2AE030E0A30144
S1130B900E94EF06882E861845C0853731F4232D30
S1130BA02F7EB22E2AE030E025C0932D997FB92EF6
S1130BB08F36C1F018F4883579F0B5C0803719F054
S1130BC0883721F0B0C0E92FE061BE2EB4FE0DC01D
S1130BD0FB2DF460BF2E09C034FE0AC0292F266005
S1130BE0B22E06C028E030E005C020E130E002C0AB
S1130BF020E132E0F801B7FE07C060817181828193
S1130C0093810C5F1F4F06C06081718180E090E08A
S1130C100E5F1F4FA3010E94EF06882E8618FB2D3E
S1130C20FF773F2E36FE0DC0232D2E7FA22E891472
S1130C3058F434FE0BC032FC09C0832D8E7EA82EDE
S1130C4005C0B82CA32C03C0B82C01C0B92CA4FE39
S1130C500FC0FE01E80DF11D8081803321F49A2D2F
S1130C60997EA92E09C0A2FE06C0B394B39404C011
S1130C708A2D867809F0B394A3FC11C0A0FE06C0A7
S1130C80B21488F4280C922C9B180EC0B21460F491
S1130C90B60180E290E00E94B306B394F7CFB21499
S1130CA018F42B1802C0982C212CA4FE10C0B601F5
S1130CB080E390E00E94B306A2FE17C0A1FC03C02B
S1130CC088E790E002C088E590E0B6010CC08A2D68
S1130CD0867859F0A1FE02C08BE201C080E2A7FC35
S1130CE08DE2B60190E00E94B306891438F4B6018F
S1130CF080E390E00E94B3069A94F7CF8A94F301BC
S1130D00E80DF11D8081B60190E00E94B3068110C8
S1130D10F5CF222009F442CEB60180E290E00E9491
S1130D20B3062A94F6CFF6018681978102C08FEF2D
S1130D309FEF2B96E2E10C946907FC01059061504A
S1130D4070400110D8F7809590958E0F9F1F0895DD
S1130D50FC016150704001900110D8F78095909586
S1130D608E0F9F1F08950F931F93CF93DF93FB0163
S1130D70238121FD03C08FEF9FEF2CC022FF16C0FB
S1130D8046815781248135814217530744F4A08159
S1130D90B1819D012F5F3F4F318320838C93268146
S1130DA037812F5F3F4F3783268314C08B01EC01BB
S1130DB0FB010084F185E02D0995892BE1F6D8012A
S1130DC016968D919C911797019617969C938E93E6
S1130DD01697CE01DF91CF911F910F910895FA01DB
S1130DE0AA27283051F1203181F1E8946F936E7F66
S1130DF06E5F7F4F8F4F9F4FAF4FB1E03ED0B4E057
S1130E003CD0670F781F891F9A1FA11D680F791F97
S1130E108A1F911DA11D6A0F711D811D911DA11DA8
S1130E2020D009F468943F912AE0269F11243019B8
S1130E30305D3193DEF6CF010895462F4770405D53
S1130E404193B3E00FD0C9F7F6CF462F4F70405D02
S1130E504A3318F0495D31FD4052419302D0A9F75D
S1130E60EACFB4E0A6959795879577956795BA9557
S1130E70C9F700976105710508959B01AC010A2E1D
S1130E8006945795479537952795BA95C9F7620FF4
S1130E90731F841F951FA01D08952F923F924F9298
S1130EA05F926F927F928F929F92AF92BF92CF92F6
S1130EB0DF92EF92FF920F931F93CF93DF93CDB7FF
S1130EC0DEB7CA1BDB0B0FB6F894DEBF0FBECDBF77
S1130ED009942A88398848885F846E847D848C8448
S1130EE09B84AA84B984C884DF80EE80FD800C8151
S1130EF01B81AA81B981CE0FD11D0FB6F894DEBF34
S10F0F000FBECDBFED010895F894FFCFA3
S1130F0C206F6E65206275696C64696E672074610C
S1130F1C7267657420696E2070726F6A6563740001
S1130F2C4B45595041442031202E2E2032202E2E58
S1130F3C20330068656C6C6F00436C656172202E05
S10B0F4C2E2E2E2E2E2E2E0057
S9030000FC
