:100000000C942A000C943C000C943C000C943C0092
:100010000C9463010C943C000C943C000C943C0048
:100020000C943C000C943C000C943C000C943C0060
:100030000C943C000C943C000C943C000C943C0050
:100040000C943C000C943C000C943C000C943C0040
:100050000C943C0011241FBECFE5D8E0DEBFCDBF1D
:1000600010E0A0E6B0E001C01D92A837B107E1F7AB
:100070000E94BA060C9423070C940000DF93CF93E0
:10008000CDB7DEB70E9496010E94EB0089EF0E9477
:1000900055018EE990E00E943F010E940701CF9137
:1000A000DF910895DF93CF9300D000D000D0CDB77B
:1000B000DEB78A837C836B835E834D8381E0898393
:1000C0008A81853080F58D819E81009761F18A81DA
:1000D000882F90E0880F991F880F991FFC01EE5917
:1000E000FF4F808191810097F1F48A81882F90E001
:1000F000880F991F0196880F991FFC01EE59FF4F39
:100100008B819C81918380838A81882F90E0880FE6
:10011000991F880F991FFC01EE59FF4F8D819E8119
:100120009183808301C01982898126960FB6F89445
:10013000DEBF0FBECDBFCF91DF910895DF93CF9388
:100140000F92CDB7DEB7809160009091610001966B
:100150009093610080936000198236C040916000E6
:10016000509161008981882F90E0880F991F019636
:10017000880F991FFC01EE59FF4F20813181CA0180
:10018000B9010E940F070097E1F48981882F90E060
:10019000880F991F880F991FFC01EE59FF4F80812E
:1001A0009181009771F08981882F90E0880F991FC5
:1001B000880F991FFC01EE59FF4F0190F081E02D4F
:1001C000099589818F5F89838981853038F20F9005
:1001D000CF91DF910895DF93CF93CDB7DEB7A5E43C
:1001E000B0E0E5E4F0E080818F7B8C93A5E4B0E0A3
:1001F000E5E4F0E0808188608C93A9E5B0E0E9E572
:10020000F0E0808180688C93CF91DF910895DF9337
:10021000CF93CDB7DEB7A5E4B0E0E5E4F0E08081B0
:100220008E7F8C93A5E4B0E0E5E4F0E080818D7FE3
:100230008C93A5E4B0E0E5E4F0E0808184608C93E9
:10024000CF91DF910895DF93CF93CDB7DEB7A5E4CB
:10025000B0E0E5E4F0E080818E7F8C93A5E4B0E02F
:10026000E5E4F0E080818D7F8C93A5E4B0E0E5E4E7
:10027000F0E080818B7F8C93CF91DF910895DF93A5
:10028000CF9300D0CDB7DEB79A83898389819A81D5
:10029000009731F089819A8190937700809376005E
:1002A0000F900F90CF91DF910895DF93CF930F922E
:1002B000CDB7DEB78983E3E4F0E0898180830F90D6
:1002C000CF91DF9108951F920F920FB60F921124D4
:1002D0002F933F934F935F936F937F938F939F934E
:1002E000AF93BF93EF93FF93DF93CF93CDB7DEB779
:1002F0008091760090917700009729F0E091760048
:10030000F09177000995CF91DF91FF91EF91BF9127
:10031000AF919F918F917F916F915F914F913F919D
:100320002F910F900FBE0F901F901895DF93CF93D2
:10033000CDB7DEB7AFE5B0E0EFE5F0E080818068F3
:100340008C93CF91DF910895DF93CF93CDB7DEB734
:10035000AFE5B0E0EFE5F0E080818F778C93CF914F
:10036000DF910895DF93CF93CDB7DEB7EAE3F0E0F6
:100370008CEF8083E7E3F0E08FEF8083E4E3F0E04D
:100380001082E1E3F0E01082EBE3F0E084E88083A8
:10039000E8E3F0E088E68083E5E3F0E01082E2E362
:1003A000F0E088E08083CF91DF910895DF93CF93D1
:1003B00000D000D00F92CDB7DEB789836A834B831C
:1003C0008981843008F0DCC08A81883008F0D8C088
:1003D0008B81813021F08B81882309F0D1C0898104
:1003E000282F30E03D832C838C819D8181309105C5
:1003F00009F443C02C813D81223031052CF48C81DD
:100400009D81009771F0BCC02C813D812230310567
:1004100009F45FC08C819D818330910509F485C00A
:10042000AFC08B818130A1F4AAE3B0E0EAE3F0E051
:100430008081482F8A81282F30E081E090E0022ED1
:1004400002C0880F991F0A94E2F7842B8C9398C0FE
:10045000AAE3B0E0EAE3F0E08081482F8A81282F08
:1004600030E081E090E0022E02C0880F991F0A94CC
:10047000E2F7809584238C9383C08B818130A1F433
:10048000A7E3B0E0E7E3F0E08081482F8A81282FDE
:1004900030E081E090E0022E02C0880F991F0A949C
:1004A000E2F7842B8C936CC0A7E3B0E0E7E3F0E0C5
:1004B0008081482F8A81282F30E081E090E0022E51
:1004C00002C0880F991F0A94E2F7809584238C93C9
:1004D00057C08B818130A1F4A4E3B0E0E4E3F0E005
:1004E0008081482F8A81282F30E081E090E0022E21
:1004F00002C0880F991F0A94E2F7842B8C9340C0A6
:10050000A4E3B0E0E4E3F0E08081482F8A81282F63
:1005100030E081E090E0022E02C0880F991F0A941B
:10052000E2F7809584238C932BC08B818130A1F4DA
:10053000A1E3B0E0E1E3F0E08081482F8A81282F39
:1005400030E081E090E0022E02C0880F991F0A94EB
:10055000E2F7842B8C9314C0A1E3B0E0E1E3F0E078
:100560008081482F8A81282F30E081E090E0022EA0
:1005700002C0880F991F0A94E2F7809584238C9318
:100580000F900F900F900F900F90CF91DF910895E3
:10059000DF93CF9300D000D00F92CDB7DEB7898321
:1005A0006A834B838981282F30E03D832C838C81A3
:1005B0009D818130910509F443C02C813D81223019
:1005C00031052CF48C819D81009771F0BCC02C8189
:1005D0003D812230310509F45FC08C819D818330DB
:1005E000910509F485C0AFC08B818130A1F4ABE3E4
:1005F000B0E0EBE3F0E08081482F8A81282F30E0E3
:1006000081E090E0022E02C0880F991F0A94E2F761
:10061000842B8C9398C0ABE3B0E0EBE3F0E08081F7
:10062000482F8A81282F30E081E090E0022E02C01E
:10063000880F991F0A94E2F7809584238C9383C0D6
:100640008B818130A1F4A8E3B0E0E8E3F0E08081A1
:10065000482F8A81282F30E081E090E0022E02C0EE
:10066000880F991F0A94E2F7842B8C936CC0A8E33F
:10067000B0E0E8E3F0E08081482F8A81282F30E065
:1006800081E090E0022E02C0880F991F0A94E2F7E1
:10069000809584238C9357C08B818130A1F4A5E38E
:1006A000B0E0E5E3F0E08081482F8A81282F30E038
:1006B00081E090E0022E02C0880F991F0A94E2F7B1
:1006C000842B8C9340C0A5E3B0E0E5E3F0E08081AB
:1006D000482F8A81282F30E081E090E0022E02C06E
:1006E000880F991F0A94E2F7809584238C932BC07E
:1006F0008B818130A1F4A2E3B0E0E2E3F0E08081FD
:10070000482F8A81282F30E081E090E0022E02C03D
:10071000880F991F0A94E2F7842B8C9314C0A2E3EC
:10072000B0E0E2E3F0E08081482F8A81282F30E0BA
:1007300081E090E0022E02C0880F991F0A94E2F730
:10074000809584238C930F900F900F900F900F90B3
:10075000CF91DF910895DF93CF9300D000D000D0E8
:10076000CDB7DEB789836A835C834B838981282F69
:1007700030E03E832D834D815E814130510559F13A
:100780008D819E818230910534F42D813E81211529
:10079000310569F05BC04D815E814230510579F1D0
:1007A0008D819E818330910509F43DC04FC0E9E3FE
:1007B000F0E08081282F30E08A81882F90E0A90125
:1007C00002C0559547958A95E2F7CA018170EB8181
:1007D000FC8180833BC0E6E3F0E08081282F30E09D
:1007E0008A81882F90E0A90102C0559547958A9586
:1007F000E2F7CA018170EB81FC81808327C0E3E3CB
:10080000F0E08081282F30E08A81882F90E0A901D4
:1008100002C0559547958A95E2F7CA018170EB8130
:10082000FC81808313C0E0E3F0E08081282F30E07A
:100830008A81882F90E0A90102C0559547958A9535
:10084000E2F7CA018170EB81FC81808326960FB6A6
:10085000F894DEBF0FBECDBFCF91DF910895DF9337
:10086000CF9300D000D0CDB7DEB789836A8389816A
:10087000282F30E03C832B838B819C818130910534
:1008800049F12B813C81223031052CF48B819C81F4
:10089000009761F05AC02B813C812230310571F103
:1008A0008B819C8183309105E9F14FC0ABE3B0E0CF
:1008B000EBE3F0E08081482F8A81282F30E081E04F
:1008C00090E0022E02C0880F991F0A94E2F7842755
:1008D0008C933BC0A8E3B0E0E8E3F0E08081482FD0
:1008E0008A81282F30E081E090E0022E02C0880F3C
:1008F000991F0A94E2F784278C9327C0A5E3B0E000
:10090000E5E3F0E08081482F8A81282F30E081E004
:1009100090E0022E02C0880F991F0A94E2F7842704
:100920008C9313C0A2E3B0E0E2E3F0E08081482FB3
:100930008A81282F30E081E090E0022E02C0880FEB
:10094000991F0A94E2F784278C930F900F900F90D1
:100950000F90CF91DF910895DF93CF9300D000D017
:10096000CDB7DEB789836A838981282F30E03C8345
:100970002B838B819C818130910549F12B813C81B6
:10098000223031052CF48B819C81009761F05AC094
:100990002B813C812230310571F18B819C81833028
:1009A0009105E9F14FC0ABE3B0E0EBE3F0E080810B
:1009B000482F8A81282F30E081E090E0022E02C08B
:1009C000880F991F0A94E2F7842B8C933BC0A8E30D
:1009D000B0E0E8E3F0E08081482F8A81282F30E002
:1009E00081E090E0022E02C0880F991F0A94E2F77E
:1009F000842B8C9327C0A5E3B0E0E5E3F0E0808191
:100A0000482F8A81282F30E081E090E0022E02C03A
:100A1000880F991F0A94E2F7842B8C9313C0A2E3EA
:100A2000B0E0E2E3F0E08081482F8A81282F30E0B7
:100A300081E090E0022E02C0880F991F0A94E2F72D
:100A4000842B8C930F900F900F900F90CF91DF918C
:100A50000895DF93CF9300D000D0CDB7DEB7898360
:100A60006A838981843008F055C08A818F3F21F0E4
:100A70008A81882309F04EC08981282F30E03C8389
:100A80002B838B819C818130910509F12B813C81E5
:100A9000223031052CF48B819C81009761F03AC0A3
:100AA0002B813C8122303105F1F08B819C81833098
:100AB000910529F12FC08A818F3F29F4EAE3F0E004
:100AC0008FEF808327C0EAE3F0E0108223C08A81A1
:100AD0008F3F29F4E7E3F0E08FEF80831BC0E7E36B
:100AE000F0E0108217C08A818F3F29F4E4E3F0E040
:100AF0008FEF80830FC0E4E3F0E010820BC08A81A7
:100B00008F3F29F4E1E3F0E08FEF808303C0E1E35E
:100B1000F0E010820F900F900F900F90CF91DF9127
:100B20000895DF93CF9300D000D0CDB7DEB789838F
:100B30006A838981843090F58981282F30E03C8355
:100B40002B838B819C8181309105D1F02B813C815D
:100B5000223031052CF48B819C81009761F01EC0FE
:100B60002B813C812230310581F08B819C81833047
:100B7000910581F013C0EBE3F0E08A8180830EC021
:100B8000E8E3F0E08A81808309C0E5E3F0E08A8150
:100B9000808304C0E2E3F0E08A8180830F900F90AD
:100BA0000F900F90CF91DF910895DF93CF9300D0F6
:100BB00000D00F92CDB7DEB789837B836A838981AA
:100BC000843008F03EC08A819B810097D1F18981F1
:100BD000282F30E03D832C838C819D8181309105CD
:100BE000E1F02C813D81223031052CF48C819D81F6
:100BF000009761F026C02C813D8122303105A1F0A3
:100C00008C819D8183309105B1F01BC0E9E3F0E058
:100C10008081EA81FB81808314C0E6E3F0E080817B
:100C2000EA81FB8180830DC0E3E3F0E08081EA810B
:100C3000FB81808306C0E0E3F0E08081EA81FB81F4
:100C400080830F900F900F900F900F90CF91DF91B6
:100C50000895DF93CF9300D00F92CDB7DEB789838D
:100C60008981843008F03EC08981282F30E03B83A1
:100C70002A838A819B8181309105E9F02A813B8119
:100C8000223031052CF48A819B81009761F02AC0C3
:100C90002A813B8122303105B1F08A819B818330EA
:100CA0009105C9F01FC0ABE3B0E0EBE3F0E0808159
:100CB00080958C9317C0A8E3B0E0E8E3F0E0808172
:100CC00080958C930FC0A5E3B0E0E5E3F0E0808170
:100CD00080958C9307C0A2E3B0E0E2E3F0E080816E
:100CE00080958C930F900F900F90CF91DF91089586
:100CF000DF93CF9300D00F92CDB7DEB78983898180
:100D0000843090F58981282F30E03B832A838A81C3
:100D10009B8181309105D1F02A813B8122303105C0
:100D20002CF48A819B81009761F01EC02A813B814F
:100D30002230310581F08A819B818330910581F0D9
:100D400013C0EBE3F0E08FEF80830EC0E8E3F0E048
:100D50008FEF808309C0E5E3F0E08FEF808304C06C
:100D6000E2E3F0E08FEF80830F900F900F90CF9130
:100D7000DF910895DF93CF93CDB7DEB70E94B20124
:100D800023EE36E080E064EF71E0A9010E9452009A
:100D90002EEE36E081E068EE73E0A9010E94520079
:100DA00029EF36E082E060ED77E0A9010E94520071
:100DB00024E037E083E068EB7BE0A9010E94520069
:100DC0000E943E00FFCFDF93CF93CDB7DEB781E027
:100DD00067E00E942F04CF91DF910895DF93CF93B6
:100DE000CDB7DEB780E064E00E942F04CF91DF91A1
:100DF0000895DF93CF93CDB7DEB780E065E00E9422
:100E00002F04CF91DF910895DF93CF93CDB7DEB755
:100E100080E066E00E942F04CF91DF910895AA1B25
:100E2000BB1B51E107C0AA1FBB1FA617B70710F0D5
:100E3000A61BB70B881F991F5A95A9F78095909507
:0A0E4000BC01CD010895F894FFCF26
:00000001FF
