:100000000C942A000C943C000C943C000C943C0092
:100010000C943C000C943C000C943C000C943C0070
:100020000C943C000C943C000C9408020C943C0092
:100030000C943C000C943C000C943C000C943C0050
:100040000C943C000C943C000C943C000C943C0040
:100050000C943C0011241FBECFE5D8E0DEBFCDBF1D
:1000600020E0A0E6B0E001C01D92A736B207E1F79C
:100070000E94CC010C9451020C9400009BB3977F1A
:100080009BBB882324F49BB390689BBB03C09BB3AA
:100090009F779BBB86FF04C09BB390649BBB03C050
:1000A0009BB39F7B9BBB85FF04C09BB390629BBBB4
:1000B00003C09BB39F7D9BBB84FF04C09BB3906137
:1000C0009BBB03C09BB39F7E9BBB9BB394609BBBBE
:1000D000EFE9FFE03197F1F700C000009BB39B7F91
:1000E0009BBBEFE9FFE03197F1F700C0000083FF11
:1000F00004C09BB390689BBB03C09BB39F779BBB23
:1001000082FF04C09BB390649BBB03C09BB39F7BE7
:100110009BBB81FF04C09BB390629BBB03C09BB39E
:100120009F7D9BBB80FF04C08BB380618BBB03C0F2
:100130008BB38F7E8BBB8BB384608BBB8FE99FE0CF
:100140000197F1F700C000008BB38B7F8BBBEFE909
:10015000FFE03197F1F700C0000008958AB38C6F7B
:100160008ABB83E00E943E008FE79EE30197F1F790
:1001700000C0000083E00E943E008FE79EE30197ED
:10018000F1F700C0000083E00E943E008FE79EE38D
:100190000197F1F700C0000082E00E943E0088E273
:1001A0000E943E0088E00E943E0081E00E943E00E6
:1001B00086E00E943E008CE00E943E009FEF29EF07
:1001C00080E0915020408040E1F700C00000089599
:1001D0009BB398609BBB882324F49BB390689BBB24
:1001E00003C09BB39F779BBB86FF04C09BB3906407
:1001F0009BBB03C09BB39F7B9BBB85FF04C09BB392
:1002000090629BBB03C09BB39F7D9BBB84FF04C0DC
:100210009BB390619BBB03C09BB39F7E9BBB9BB377
:1002200094609BBBEFE9FFE03197F1F700C000005D
:100230009BB39B7F9BBBEFE9FFE03197F1F700C0D9
:10024000000083FF04C09BB390689BBB03C09BB3BB
:100250009F779BBB82FF04C09BB390649BBB03C092
:100260009BB39F7B9BBB81FF04C09BB390629BBBF6
:1002700003C09BB39F7D9BBB80FF04C08BB3806199
:100280008BBB03C08BB38F7E8BBB8BB384608BBB6C
:100290008FE99FE00197F1F700C000008BB38B7FDF
:1002A0008BBBEFE9FFE03197F1F700C00000089544
:1002B0001F93CF93DF93CDB7DEB72A970FB6F8948D
:1002C000DEBF0FBECDBF6115710581059105D1F46B
:1002D00080E30E94E8002CC02AE030E040E050E0DB
:1002E0000E942F02E1E0F0E0EC0FFD1FE10FF11D95
:1002F00017FDFA95605D6083622F732F842F952F11
:100300001F5F01C010E0611571058105910521F79E
:1003100011500CC0E1E0F0E0EC0FFD1FE10FF11D0A
:1003200017FDFA9580810E94E8001150112394F77F
:100330002A960FB6F894DEBF0FBECDBFDF91CF91E6
:100340001F9108958091600090916100A0916200DA
:10035000B09163000196A11DB11D80936000909340
:100360006100A0936200B09363008A3F9105A105EC
:10037000B10569F4809164008F5F809364001092EE
:10038000600010926100109262001092630098B3B6
:1003900081E0892788BB08950E94AE0087B3816001
:1003A00087BB82EA91E0909366008093650089EFB5
:1003B0000E94EE0180E80E943E006091640070E0BF
:1003C00080E090E00E9458012FEF81EE94E02150F0
:1003D00080409040E1F700C00000ECCF91B3916005
:1003E00091BB93B7946093BF93B7906193BF93B75A
:1003F0009F7D93BF93B7906893BF93B7986093BF67
:100400008CBF89B7826089BF8FB780688FBF08951E
:100410001F920F920FB60F9211242F933F934F9379
:100420005F936F937F938F939F93AF93BF93EF935C
:10043000FF93E0916500F09166000995FF91EF91BF
:10044000BF91AF919F918F917F916F915F914F91EC
:100450003F912F910F900FBE0F901F901895A1E222
:100460001A2EAA1BBB1BFD010DC0AA1FBB1FEE1F2E
:10047000FF1FA217B307E407F50720F0A21BB30B79
:10048000E40BF50B661F771F881F991F1A9469F7F5
:1004900060957095809590959B01AC01BD01CF0151
:0604A0000895F894FFCF5F
:00000001FF
