S00D000054494D45522E7372656396
S11300000C942A000C9434000C9434000C943400A6
S11300100C9434000C9434000C9434000C9434008C
S11300200C9434000C9434000C9434000C9434007C
S11300300C9434000C9434000C9434000C9434006C
S11300400C9434000C9434000C9434000C9434005C
S11300500C94340011241FBECFE5D8E0DEBFCDBF21
S11300600E946C000C94A8000C94000013BE83B78B
S11300708F7B83BF83B7877F83BF83B7816083BF51
S113008083B7846083BF83B7806883BF089583B7D1
S1130090816083BF83B7846083BF12BE0895CF930A
S11300A0DF9320E43FE1AC01429FC001439F900DE8
S11300B0529F900D112460E070E00E948000EB01DB
S11300C00E94470004C008B600FEFDCF2197209788
S11300D0D1F7DF91CF9108950E9436008AB38062F0
S11300E08ABB87B3806887BB88B3806888BB88EC89
S11300F090E00E944F009BB380E289278BBBF7CF2F
S113010097FB072E16F4009407D077FD09D00E94C0
S1130110940007FC05D03EF4909581959F4F089577
S1130120709561957F4F0895AA1BBB1B51E107C0D1
S1130130AA1FBB1FA617B70710F0A61BB70B881F73
S1130140991F5A95A9F780959095BC01CD01089502
S1070150F894FFCF4D
S9030000FC
