:100000000C942A000C943C000C943C000C943C0092
:100010000C94F4000C943C000C943C000C943C00B8
:100020000C943C000C943C000C943C000C943C0060
:100030000C943C000C943C000C943C000C943C0050
:100040000C943C000C943C000C943C000C943C0040
:100050000C943C0011241FBECFE5D8E0DEBFCDBF1D
:1000600020E0A0E6B0E001C01D92A837B207E1F79A
:100070000E9450000C9431010C9400008FB78068EE
:100080008FBF089588B3805888BB08959BB380E1E3
:1000900089278BBB08959BB380E289278BBB08958A
:1000A00084B3816084BB87B3806887BB8AB3806177
:1000B0008ABB8AB380628ABB42E450E068EE73E098
:1000C00080E00E94BA0046E450E060ED77E081E015
:1000D0000E94BA004BE450E068EB7BE082E00E94B3
:1000E000BA000E94AB00FFCFCF9380916000909147
:1000F000610001969093610080936000C0E027C08A
:100100002C2F30E0F901EE0FFF1FEE0FFF1FEE590D
:10011000FF4F8081918161E070E0892B11F060E0F8
:1001200070E080916000909161000E941D01892B18
:1001300069F0220F331F220F331FF901EE59FF4FD1
:100140000280F381E02D309709F00995CF5FC5302B
:10015000B8F2CF9108950E94D70089EF90E00E94F5
:10016000F20084E790E00E94EB000E943E000E94B3
:10017000E10008958530D0F441155105B9F090E0C3
:10018000FC01EE0FFF1FEE0FFF1FEE59FF4F228104
:100190003381232B59F4880F991F880F991FFC0175
:1001A000EE59FF4F7183608353834283089585B571
:1001B0008F7B85BD85B5886085BD89B7806889BF1F
:1001C000089585B58E7F85BD85B58D7F85BD85B547
:1001D000846085BD0895009721F090937700809307
:1001E0007600089583BD08951F920F920FB60F9267
:1001F00011242F933F934F935F936F937F938F932C
:100200009F93AF93BF93EF93FF93E0917600F091AC
:100210007700309709F00995FF91EF91BF91AF9169
:100220009F918F917F916F915F914F913F912F910E
:100230000F900FBE0F901F901895AA1BBB1B51E18A
:1002400007C0AA1FBB1FA617B70710F0A61BB70B46
:10025000881F991F5A95A9F780959095BC01CD01EB
:060260000895F894FFCFA1
:00000001FF
