S00D000052544F53332E737265639C
S11300000C942A000C9447000C9447000C9447006D
S11300100C946E0E0C9447000C9447000C9433021D
S11300200C9447000C9447000C9447000C94470030
S11300300C9447000C9447000C9447000C94470020
S11300400C9447000C9447000C9447000C94470010
S11300500C94470011241FBECFE5D8E0DEBFCDBF0E
S113006010E0A0E6B0E0E0EBFDE102C005900D92E7
S1130070AE37B107D9F724E0AEE7B0E001C01D9276
S1130080A73DB207E1F70E942D0E0C94D60E0C94F6
S11300900000CF93DF93EC010E94720720917E0051
S11300A030917F00C9018C0F9D1F883E43E0940767
S11300B058F42817390758F4E901C058DF4F9093D2
S11300C07F0080937E0005C0C0E0D0E002C0C0E0A5
S11300D0D0E00E949208CE01DF91CF910895089557
S11300E0FC010396928381832FEF3FEF34832383B4
S11300F0968385839087878310820895FC011186F7
S113010010860895CF93DF93EB01488159814F3FC7
S11301102FEF520721F4FC01A781B0850DC0DC014B
S1130120139601C0DF011296ED91FC911397208183
S1130130318142175307B0F71296ED91FC91139752
S1130140FB83EA83D583C483BD83AC831396DC939A
S1130150CE93129799878887FC0120812F5F208393
S1130160DF91CF910895CF93DF93FC01A085B185F2
S1130170C281D381848195819D838C83C481D581FF
S1130180828193819B838A8311968D919C9112978E
S1130190E817F90731F48481958112969C938E9324
S11301A01197118610868C9181508C938C91DF91DC
S11301B0CF9108951BBC89EF8ABD8BE08EBD89B7B2
S11301C0806189BF089531E1FC013083319722E2D7
S11301D020833197A3E3A0833197608331977083A1
S11301E031971082319760E860833197108231979C
S11301F062E06083319763E06083319764E06083F9
S1130200319765E06083319766E06083319767E0FA
S11302106083319768E06083319769E06083319748
S113022060E1608331973083319732E130833197D5
S113023033E13083319734E13083319735E13083D2
S1130240319736E13083319737E13083319738E1A4
S11302503083319739E13083319730E230833197FD
S113026031E2308331972083319723E22083319721
S1130270408331975083319726E22083319727E2D8
S11302802083319728E22083319729E22083319714
S113029020E32083319721E32083869708950E94E9
S11302A0DA00A091CD04B091CE04CD91CDBFDD9103
S11302B0DEBFFF91EF91DF91CF91BF91AF919F91FD
S11302C08F917F916F915F914F913F912F911F91EA
S11302D00F91FF90EF90DF90CF90BF90AF909F90E1
S11302E08F907F906F905F904F903F902F901F90D2
S11302F00F900FBE0F90089581E008950F920FB6EE
S1130300F8940F921F9211242F923F924F925F9272
S11303106F927F928F929F92AF92BF92CF92DF9211
S1130320EF92FF920F931F932F933F934F935F93FB
S11303306F937F938F939F93AF93BF93CF93DF93E9
S1130340EF93FF93A091CD04B091CE040DB60D921E
S11303500EB60D920E947D09A091CD04B091CE04F9
S1130360CD91CDBFDD91DEBFFF91EF91DF91CF91B4
S1130370BF91AF919F918F917F916F915F914F91B9
S11303803F912F911F910F91FF90EF90DF90CF90AD
S1130390BF90AF909F908F907F906F905F904F90A1
S11303A03F902F901F900F900FBE0F9008950F92C3
S11303B00FB6F8940F921F9211242F923F924F92EE
S11303C05F926F927F928F929F92AF92BF92CF92E1
S11303D0DF92EF92FF920F931F932F933F934F93CC
S11303E05F936F937F938F939F93AF93BF93CF93B9
S11303F0DF93EF93FF93A091CD04B091CE040DB69B
S11304000D920EB60D920E94780781110E947D090B
S1130410A091CD04B091CE04CD91CDBFDD91DEBFCE
S1130420FF91EF91DF91CF91BF91AF919F918F9108
S11304307F916F915F914F913F912F911F910F91F8
S1130440FF90EF90DF90CF90BF90AF909F908F90F0
S11304507F906F905F904F903F902F901F900F90E0
S11304600FBE0F9008950E94D7011895DC01519694
S11304702C915197222341F05696ED91FC91579778
S1130480908184E0891B089580E008950FB6F89464
S11304900F92FC01828D811102C081E001C080E0D5
S11304A00F900FBE08950FB6F8940F92FC01228DA1
S11304B0838D281302C081E001C080E00F900FBE3D
S11304C008950F931F93CF93DF93EC01042F1A8D9C
S11304D04C8D41110CC088819981892B09F042C04F
S11304E08C819D810E94820B1D821C8242C001115D
S11304F017C050E08A819B810E94CD0E2C8D8A8189
S11305009B81820F911D9B838A832C813D8182175D
S1130510930750F1888199819B838A8380E029C065
S113052050E08E819F810E94CD0E8C8D90E091953C
S1130530819591092E813F81280F391F3F832E8396
S1130540488159812417350730F42C813D81820F6D
S1130550931F9F838E83023049F4112349F0115075
S113056080E007C080E005C080E003C080E001C0F7
S113057080E01F5F1A8FDF91CF911F910F91089533
S11305801F93CF93DF93EC010FB6F8940F921E8D57
S11305900BC08989882351F0CE0141960E94E3095A
S11305A081110E94EA0A115011169CF38FEF8E8F6D
S11305B00F900FBE0FB6F8940F921D8D0BC0888557
S11305C0882351F0CE0108960E94E30981110E940C
S11305D0EA0A115011169CF38FEF8D8F0F900FBE06
S11305E0DF91CF911F9108950F931F93CF93DF93C2
S11305F0FC01362F892B09F44DC0238D222309F4E5
S11306004BC0022F10E08FEF9FEFB8010E94970EAE
S1130610448D842F90E06817790708F43FC0EF01F8
S11306200FB6F8940F9260817181FB01249FE00D55
S1130630F11D1124FD83EC831A8E7B836A830150A0
S11306401109809FA001819F500D909F500D11248E
S1130650CB01840F951F9F838E838FEF8D8F8E8F99
S113066031110CC08885882389F0CE0108960E9438
S1130670E309882359F00E947E0108C0CE01089640
S11306800E947000CE0141960E9470000F900FBE30
S113069081E005C080E003C080E001C080E0DF911C
S11306A0CF911F910F9108950F931F93F80161113A
S11306B003C01183008302C051834083838F648FFE
S11306C061E0CF010E94F4021F910F910895DF921F
S11306D0EF92FF920F931F93CF93DF93382FE62F60
S11306E0882329F1682F70E08FEF9FEF0E94970E07
S11306F08E2F90E068177907E8F03E9FC00111241F
S1130700813E2FEF9207C8F4D42EDE2FC32F4F96CD
S11307100E9449007C01009791F08C012D2DAC01C1
S1130720415E5F4F6D2F8C2F0E94540308C0E12C53
S1130730F12C05C0E12CF12C02C0E12CF12CC701F5
S1130740DF91CF911F910F91FF90EF90DF9008956B
S1130750CF92DF92EF92FF920F931F93CF93DF9389
S113076000D000D01F92CDB7DEB78C017B015D8332
S11307704C83C22ED12C0FB6F8940F92F801928DAF
S1130780838D981718F0F2E0CF1219C04C2DB701E1
S1130790C8010E946102F8019189992349F0C801B6
S11307A041960E94E309882331F00E947E0103C030
S11307B081110E947E010F900FBE81E04DC08C819B
S11307C09D81892B21F40F900FBE80E045C0D1108C
S11307D006C0CE0101960E94A00ADD24D3940F9096
S11307E00FBE0E9472070FB6F8940F92F801858D20
S11307F08F3F09F4158EF801868D8F3F09F4168E0C
S11308000F900FBEBE016C5F7F4FCE0101960E9418
S1130810AB0A81111BC0C8010E945302882381F0D6
S11308206C817D81C80108960E94D109C8010E948B
S1130830C0020E94920881119ECF0E947E019BCF2C
S1130840C8010E94C0020E94920895CFC8010E946C
S1130850C0020E94920880E00F900F900F900F90BA
S11308600F90DF91CF911F910F91FF90EF90DF9048
S1130870CF900895EF92FF920F931F93CF93DF933E
S113088000D000D01F92CDB7DEB78C017D836C837E
S1130890E12CF12C0FB6F8940F92F801828D882385
S11308A0D1F08150828F80819181892B29F40E941B
S11308B0580CF80195838483F8018085882339F0E6
S11308C0C80108960E94E30981110E947E010F90DD
S11308D00FBE81E074C08C819D81892B21F40F901F
S11308E00FBE80E06CC0F11006C0CE0101960E94DC
S11308F0A00AFF24F3940F900FBE0E9472070FB654
S1130900F8940F92F801858D8F3F09F4158EF80144
S1130910868D8F3F09F4168E0F900FBEBE016C5F5B
S11309207F4FCE0101960E94AB0A81112AC0C801F3
S11309300E9446028823F9F0F80180819181892B75
S113094051F40FB6F8940F92848195810E94EE0AB7
S1130950E82E0F900FBE6C817D81C80141960E94E4
S1130960D109C8010E94C0020E949208811192CF4D
S11309700E947E018FCFC8010E94C0020E9492088B
S113098089CFC8010E94C0020E949208C8010E9437
S11309904602882309F47ECFEE2081F00FB6F89446
S11309A00F92C8010E943602682FF8018481958154
S11309B00E94E50B0F900FBE80E001C080E00F9015
S11309C00F900F900F900F90DF91CF911F910F9187
S11309D0FF90EF900895E0919504F0919604808142
S11309E0811107C08FEF9FEF90936C0480936B0489
S11309F00895E0919504F09196040580F681E02D28
S1130A008081918190936C0480936B040895CF93BB
S1130A10DF93EC018F89988D0E946F00CE010E94B4
S1130A206F00DF91CF9108956F927F928F929F9282
S1130A30AF92BF92CF92DF92EF920F931F93CF9317
S1130A40DF93CDB7DEB74C01D50157968D919C91BC
S1130A505897215031093C01620E731E61157105CE
S1130A6089F416C0822F90E0FB01E80FF91F308152
S1130A70D501A80FB91F59963C938081882329F08A
S1130A802F5F01C020E0283068F3F50110A203C0F5
S1130A90D50159961C92B3E0BE1520F40F2EF3E055
S1130AA0EF2EF02DF501E68AE1A212A2C50102960D
S1130AB00E947E00C5010C960E947E00D501199605
S1130AC0BC92AE92189784E090E08E1991091D961D
S1130AD09C938E931C975396BC92AE92529784E04B
S1130AE0F501B396DF011D928A95E9F7F50117A286
S1130AF0A801B401C3010E94E300D5018D939C9326
S1130B00C114D10419F0F601B182A082DF91CF9112
S1130B101F910F91EF90DF90CF90BF90AF909F9077
S1130B208F907F906F900895CF93C0E010C08C2F6A
S1130B3090E09C01220F331F220F331F220F331F1B
S1130B40820F931F87559B4F0E947000CF5FC43064
S1130B5070F380EA94E00E94700087E994E00E94B8
S1130B6070008AE894E00E94700081E894E00E949A
S1130B70700087E794E00E94700080EA94E090930C
S1130B8096048093950487E994E090939404809369
S1130B909304CF910895CF93DF93EC010FB6F894AB
S1130BA00F92809176048F5F809376048091CD04B8
S1130BB09091CE04892B59F4D093CE04C093CD04E4
S1130BC080917604813099F40E94940510C080913C
S1130BD0720481110CC0E091CD04F091CE04968989
S1130BE08E89891720F0D093CE04C093CD048091D0
S1130BF06D048F5F80936D048E89909173049817B0
S1130C0010F48093730490E0FC01EE0FFF1FEE0FCD
S1130C10FF1FEE0FFF1F8E0F9F1FFC01E755FB4FB9
S1130C200180F281E02DFD83EC83848195819F8393
S1130C308E83A481B581CE01029613969C938E93E4
S1130C40129795838483EE89F0E0CF01880F991F72
S1130C50880F991F880F991FE80FF91FE755FB4F5D
S1130C60FB87EA8780818F5F80830F900FBE80911E
S1130C707204882351F0E091CD04F091CE0496895A
S1130C808E89981710F40E947E01DF91CF91089508
S1130C90CF93DF931CC00FB6F8940F92E0918604B3
S1130CA0F0918704C681D781CE0102960E94B300D9
S1130CB080917604815080937604809180048150E1
S1130CC0809380040F900FBECE010E94070580918F
S1130CD080048111E0CFDF91CF9108950E944806EE
S1130CE0FDCFFF920F931F93CF93DF93EC01F62E6A
S1130CF000917404109175048091CD049091CE04F8
S1130D0002960E94B300CF3F8FEFD807B1F5FF20C2
S1130D10A1F1E7E7F4E0A181B281C091CD04D091C3
S1130D20CE04BD83AC83C091CD04D091CE0414967F
S1130D308D919C9115979F838E831496CD91DC9110
S1130D4015978091CD049091CE0402969B838A835B
S1130D508091CD049091CE04029615969C938E9327
S1130D601497A091CD04B091CE041B96FC93EE93FE
S1130D701A9780818F5F80832FC0C00FD11FE091AD
S1130D80CD04F091CE04D383C283C017D10768F495
S1130D906091CD047091CE04809193049091940459
S1130DA06E5F7F4F0E94820017C06091CD047091E6
S1130DB0CE0480919504909196046E5F7F4F0E94BB
S1130DC0820080916B0490916C04C817D90720F4B9
S1130DD0D0936C04C0936B04DF91CF911F910F915A
S1130DE0FF9008952F923F924F925F926F927F925D
S1130DF08F929F92AF92BF92CF92DF92EF92FF9227
S1130E000F931F93CF93DF933C011B015A012901D8
S1130E10CA010E9449006C01892B71F088E290E0BC
S1130E200E944900EC01892B19F0D88ECF8A06C0A4
S1130E30C6010E946F0002C0C0E0D0E0209791F08C
S1130E40950140E050E0812C912C5E016701E02E79
S1130E508201B101C3010E941405CE010E94CB0599
S1130E6081E001C08FEFDF91CF911F910F91FF902F
S1130E70EF90DF90CF90BF90AF909F908F907F9036
S1130E806F905F904F903F902F900895EF92FF9254
S1130E900F930F2EF9E6EF2EF4E0FF2EF02D00E075
S1130EA020E030E046E450E061E670E08EE696E053
S1130EB00E94F206813081F4F8948FEF9FEF9093B3
S1130EC06C0480936B0481E0809372041092750427
S1130ED0109274040E944F01809160000F91FF9062
S1130EE0EF900895809168048F5F8093680408955B
S1130EF00F931F93CF93DF9380916804811101C1F5
S1130F00C0917404D09175048E010F5F1F4F10932C
S1130F1075040093740401151105B9F480919504C6
S1130F209091960420919304309194043093960404
S1130F3020939504909394048093930480916E0479
S1130F408F5F80936E040E94EB0480916B049091F8
S1130F506C040817190720F480E0B8C081E001C0D0
S1130F6080E0E0919504F09196049081911107C07E
S1130F702FEF3FEF30936C0420936B04A7C0E091F4
S1130F809504F09196040580F681E02D0680F781A2
S1130F90E02D228133810217130728F430936C0467
S1130FA020936B0493C0A285B38524813581468147
S1130FB05781E9015D834C832681378144815581C2
S1130FC0E9015B834A8311962D913C911297AF01FD
S1130FD04E5F5F4F2417350731F42681378112960F
S1130FE03C932E931197138612869C9191509C9357
S1130FF0A489B589109719F1268537856089718987
S1131000E9017D836C832089318966857785E901CF
S11310107B836A8311966D917C9112979F01245F63
S11310203F4F6217730731F42089318912963C933C
S11310302E931197158A148A9C9191509C9326891A
S113104090917304921710F42093730430E0D90143
S1131050AA0FBB1FAA0FBB1FAA0FBB1F2A0F3B1F40
S1131060D901A755BB4F11960D90BC91A02DB58306
S1131070A48314962D913C91159737832683149657
S11310802D913C911597E9015B834A8315965C93F6
S11310904E931497A689B0E09D01220F331F220FAF
S11310A0331F220F331FA20FB31FA755BB4FB387A4
S11310B0A2879C919F5F9C932689E091CD04F09137
S11310C0CE049689291708F049CF4BCFE091CD047F
S11310D0F091CE04268930E0F901EE0FFF1FEE0FE8
S11310E0FF1FEE0FFF1F2E0F3F1FF901E755FB4FA8
S11310F09081923008F081E090916F0491110CC0BE
S11311000CC08091700490917104019690937104C5
S11311108093700480E001C081E0DF91CF911F9142
S11311200F910895CF93DF930FB6F8940F928091A7
S11311306804815080936804809168048111BFC061
S113114080917604811196C0BDC0E0918F04F09126
S113115090040680F781E02DA489B589C685D785DA
S1131160808991899D838C83C089D189868597855F
S11311709B838A8311962D913C911297CF010C96F3
S11311802817390731F48089918912969C938E939C
S11311901197158A148A8C9181508C93A285B385FA
S11311A0C481D581868197819D838C83C681D781B3
S11311B0848195819B838A8311968D919C9112974A
S11311C09F012E5F3F4F8217930731F486819781E9
S11311D012969C938E931197138612868C9181504C
S11311E08C93868990917304981710F480937304F8
S11311F090E0DC01AA0FBB1FAA0FBB1FAA0FBB1FE5
S11312008A0F9B1FDC01A755BB4F11960D90BC9113
S1131210A02DB583A48314968D919C9115979783E3
S113122086831496CD91DC9115973B832A8315967A
S11312303C932E931497A689B0E0CD01880F991F93
S1131240880F991F880F991FA80FB91FA755BB4F67
S1131250B387A2878C918F5F8C939689A091CD04DC
S1131260B091CE0456968C91981730F081E080931B
S11312706F0402C0E0E0F0E080918A04811165CF40
S1131280EF2B11F00E94EB04C0917004D091710413
S1131290209769F00E947807882319F081E08093F1
S11312A06F042197B9F71092710410927004809121
S11312B06F04882331F00E947E0181E003C080E046
S11312C001C080E00F900FBEDF91CF910895CF93BE
S11312D0DF93EC01892B49F00E94720760E0CE0194
S11312E00E9471060E94920801C080E0811102C030
S11312F00E947E01DF91CF91089580916804882334
S113130021F081E080936F04089510926F0420917E
S1131310730401C02150822F90E0FC01EE0FFF1FE7
S1131320EE0FFF1FEE0FFF1FE80FF91FE755FB4FEE
S11313303081332379F3AC01440F551F440F551FFB
S1131340440F551F480F591FDF010180F281E02D22
S11313500280F381E02D1296FC93EE93119744558D
S11313605B4FE417F50729F442815381FD01528351
S11313704183FC01EE0FFF1FEE0FFF1FEE0FFF1F57
S11313808E0F9F1FFC01E755FB4F0180F281E02D7A
S1131390868197819093CE048093CD042093730427
S11313A00895CF93DF93EB016091CD047091CE0447
S11313B0645F7F4F0E94820061E0CE010E9471064B
S11313C0DF91CF910895CF93DF93DC011596ED91D2
S11313D0FC9116970680F781E02DA489B589C6850E
S11313E0D785808991899D838C83C089D18986859D
S11313F097859B838A8311968D919C9112979F0167
S1131400245F3F4F8217930731F4808991891296A4
S11314109C938E931197158A148A8C9181508C9386
S113142080916804811160C0A285B385C481D5818F
S1131430868197819D838C83C681D78184819581A0
S11314409B838A8311968D919C9112979F012E5FA5
S11314503F4F8217930731F48681978112969C93AC
S11314608E931197138612868C9181508C93868962
S113147090917304981710F48093730490E0DC0146
S1131480AA0FBB1FAA0FBB1FAA0FBB1F8A0F9B1F4C
S1131490DC01A755BB4F11960D90BC91A02DB583CF
S11314A0A48314968D919C911597978386831496A3
S11314B0CD91DC9115973B832A8315963C932E930B
S11314C01497A689B0E0CD01880F991F880F991F42
S11314D0880F991FA80FB91FA755BB4FB387A287C1
S11314E08C918F5F8C931CC04AE854E0DA0111960A
S11314F0CD91DC911297D787C6878C819D81918B82
S1131500808B8C819D81DC0113963C932E931297E2
S11315103D832C83558B448BDA018C918F5F8C93A4
S11315209689E091CD04F091CE048689891720F440
S113153081E080936F0401C080E0DF91CF91089532
S113154020916E04FC012083209174043091750471
S11315503283218308951F93CF93DF930FB6F894BA
S11315600F92E0917404F0917504DC0111964D9191
S11315705C911297DF01A41BB50BEB012881398123
S11315802F3FDFEF3D07F9F0EC011881C0916E04A5
S11315901C1741F0E417F50728F0FB0111821082B3
S11315A081E012C0A217B30748F4FB012A1B3B0BCE
S11315B0318320830E94A00A80E006C0DB011D92D3
S11315C01C9281E001C080E00F900FBEDF91CF91AB
S11315D01F91089581E080936F0408950F931F93E2
S11315E0CF93DF93FC01892B09F484C02689A09151
S11315F0CD04B091CE0456968C91281708F070C093
S113160084859585992364F0A091CD04B091CE048E
S113161056963C9184E090E0831B910995878487DA
S11316208285938530E0A901440F551F440F551F4F
S1131630440F551F240F351F27553B4F821793071F
S113164009F045C0EF018F010E5F1F4FC8010E94D2
S1131650B300E091CD04F091CE0486898E8B9091F5
S11316607304981710F48093730490E0FC01EE0F58
S1131670FF1FEE0FFF1FEE0FFF1F8E0F9F1FFC01BA
S1131680E755FB4F0180F281E02DFD83EC838481DB
S113169095819F838E83A481B58113961C930E93A9
S11316A01297158304838E8990E0FC01EE0FFF1FCF
S11316B0EE0FFF1FEE0FFF1FE80FF91FE755FB4F5B
S11316C0FB87EA8780818F5F808381E016C0A091C9
S11316D0CD04B091CE0456968C91868B81E00DC0DA
S11316E091A1E091CD04F091CE048689981720F061
S11316F080E003C080E001C081E0DF91CF911F91C1
S11317000F9108950F931F93CF93DF93FC01892BBF
S113171009F451C082A1815082A3268991A129177D
S113172009F44BC081114BC0EF018F010E5F1F4FB5
S1131730C8010E94B30089A18E8B24E030E0281BED
S113174031093D872C8790917304981710F4809386
S1131750730490E0FC01EE0FFF1FEE0FFF1FEE0F6E
S1131760FF1F8E0F9F1FFC01E755FB4F0180F28185
S1131770E02DFD83EC83848195819F838E83A481F6
S1131780B58113961C930E93129715830483EE89E7
S1131790F0E0CF01880F991F880F991F880F991FB8
S11317A0E80FF91FE755FB4FFB87EA8780818F5FBE
S11317B0808381E005C080E003C080E001C080E058
S11317C0DF91CF911F910F9108950F931F93CF93A2
S11317D0DF93FC01892B09F466C091A1961708F4E4
S11317E0962F8689981709F45EC022A1213009F04A
S11317F05AC0968B24853585332334F024E030E0B9
S1131800291B3109358724872285338590E0AC0173
S1131810440F551F440F551F440F551F840F951F28
S113182087559B4F28173907F1F5EF018F010E5F9C
S11318301F4FC8010E94B3008E89909173049817BA
S113184010F48093730490E0FC01EE0FFF1FEE0F81
S1131850FF1FEE0FFF1F8E0F9F1FFC01E755FB4F6D
S11318600180F281E02DFD83EC83848195819F8347
S11318708E83A481B58113961C930E9312971583BE
S113188004838E8990E0FC01EE0FFF1FEE0FFF1F13
S1131890EE0FFF1FE80FF91FE755FB4FFB87EA87A1
S11318A080818F5F8083DF91CF911F910F91089585
S11318B08091CD049091CE04892B39F0E091CD0430
S11318C0F091CE0482A18F5F82A38091CD04909188
S11318D0CE0408959BB3977F9BBB882324F498B3CD
S11318E0906198BB03C098B39F7E98BB86FF04C0E9
S11318F098B3946098BB03C098B39B7F98BB85FF53
S113190004C098B3926098BB03C098B39D7F98BB02
S113191084FF04C098B3916098BB03C098B39E7FC2
S113192098BB9BB394609BBBE9EFF0E03197F1F770
S113193000C000009BB39B7F9BBBE9EFF0E03197B5
S1131940F1F700C0000083FF04C098B3906198BB16
S113195003C098B39F7E98BB82FF04C098B3946081
S113196098BB03C098B39B7F98BB81FF04C098B316
S1131970926098BB03C098B39D7F98BB80FF04C05E
S113198088B3816088BB03C088B38E7F88BB8BB368
S113199084608BBB89EF90E00197F1F700C00000F1
S11319A08BB38B7F8BBBE9EFF0E03197F1F700C08D
S11319B0000008958AB38C608ABB87B3876187BBB4
S11319C088E20E946A0C89EF90E00197F1F700C069
S11319D0000081E00E946A0C89EF90E00197F1F722
S11319E000C0000082E00E946A0C89EF90E0019739
S11319F0F1F700C0000086E00E946A0C89EF90E0D5
S1131A000197F1F700C0000080E80E946A0C89EF9A
S1131A1090E00197F1F700C0000008959BB398602F
S1131A209BBB882324F498B3906198BB03C098B3FC
S1131A309F7E98BB86FF04C098B3946098BB03C094
S1131A4098B39B7F98BB85FF04C098B3926098BB02
S1131A5003C098B39D7F98BB84FF04C098B3916082
S1131A6098BB03C098B39E7F98BB9BB394609BBB09
S1131A70E9EFF0E03197F1F700C000009BB39B7FE2
S1131A809BBBE9EFF0E03197F1F700C0000083FF62
S1131A9004C098B3906198BB03C098B39F7E98BB71
S1131AA082FF04C098B3946098BB03C098B39B7F33
S1131AB098BB81FF04C098B3926098BB03C098B3ED
S1131AC09D7F98BB80FF04C088B3816088BB03C03E
S1131AD088B38E7F88BB8BB384608BBB89EF90E027
S1131AE00197F1F700C000008BB38B7F8BBBE9EF4C
S1131AF0F0E03197F1F700C000000895CF92DF9233
S1131B00EF92FF921F93CF93DF93CDB7DEB72A975F
S1131B100FB6F894DEBF0FBECDBF6B017C01672BFF
S1131B20682B692B19F480E30E940E0D10E017C096
S1131B30C701B6012AE030E040E050E00E94AB0E5D
S1131B40E1E0F0E0EC0FFD1FE10FF11D17FDFA9548
S1131B50605D6083C22ED32EE42EF52E1F5FC11468
S1131B60D104E104F10421F711500CC0E1E0F0E0EC
S1131B70EC0FFD1FE10FF11D17FDFA9580810E9406
S1131B800E0D1150112394F72A960FB6F894DEBF68
S1131B900FBECDBFDF91CF911F91FF90EF90DF90EB
S1131BA0CF9008950F931F93CF938C01C0E003C08F
S1131BB00E940E0DCF5FF801EC0FF11D80818111A1
S1131BC0F7CFCF911F910F91089584EF91E00E9478
S1131BD0670960E070E08091D5049091D6040E947A
S1131BE03A048130B1F786E690E00E94D20D20E0FD
S1131BF040E050E060E070E08091D5049091D6041C
S1131C000E94A80382E390E00E946709E2CF84EF78
S1131C1091E00E94670960E070E08091D5049091A2
S1131C20D6040E943A048130B1F76DE670E0072EC5
S1131C30000C880B990B0E947E0D20E040E050E0E0
S1131C4060E070E08091D5049091D6040E94A803CE
S1131C5082E390E00E946709DECF0E94DA0C87EAF3
S1131C6091E60197F1F700C000008CE00E946A0C35
S1131C7043E060E081E00E9467039093D604809380
S1131C80D504009739F020E040E050E060E070E0D7
S1131C900E94A8030F2EF1EDEF2EF4E0FF2EF02D9D
S1131CA001E020E030E04CE251E064E770E085EED2
S1131CB09DE00E94F2060F2EFFECEF2EF4E0FF2EC3
S1131CC0F02D20E030E04CE251E068E770E087E07E
S1131CD09EE00E94F2060E944607FFCF1F920F92D9
S1131CE00FB60F9211242F933F934F935F936F93EB
S1131CF07F938F939F93AF93BF93EF93FF93E09161
S1131D00D304F091D404309709F00995FF91EF9131
S1131D10BF91AF919F918F917F916F915F914F91FF
S1131D203F912F910F900FBE0F901F901895AA1BF3
S1131D30BB1B51E107C0AA1FBB1FA617B70710F0B2
S1131D40A61BB70B881F991F5A95A9F780959095E4
S1131D50BC01CD010895A1E21A2EAA1BBB1BFD01F3
S1131D600DC0AA1FBB1FEE1FFF1FA217B307E40776
S1131D70F50720F0A21BB30BE40BF50B661F771FCE
S1131D80881F991F1A9469F76095709580959095AE
S1131D909B01AC01BD01CF010895FB01DC0102C030
S1131DA001900D9241505040D8F70895F894FFCF18
S1131DB00349444C45005461736B203100546173F2
S1111DC06B20320052454400475245454E0008
S9030000FC
