:100000000C942A000C9434000C9434000C943400AA
:100010000C9434000C9434000C9434000C94340090
:100020000C9434000C9434000C9434000C94340080
:100030000C9434000C9434000C9434000C94340070
:100040000C9434000C9434000C9434000C94340060
:100050000C94340011241FBECFE5D8E0DEBFCDBF25
:100060000E9436000C9452000C94000089EF0E940C
:100070003C000E944D00FFCF91B3916091BB93B7BC
:10008000946093BF93B7906893BF93B7986093BF02
:1000900093B7906193BF8CBF089583B7846083BF8B
:0800A00012BE0895F894FFCF91
:00000001FF
