S0110000494E544552525550542E7372656346
S11300000C942A000C9451000C9434000C94340089
S11300100C9434000C9434000C9434000C9434008C
S11300200C9434000C9434000C9434000C9434007C
S11300300C9434000C9434000C9434000C9434006C
S11300400C9434000C9434000C9434000C9434005C
S11300500C94340011241FBECFE5D8E0DEBFCDBF21
S11300600E9436000C9463000C94000081B38460F9
S113007081BB8AB38F7D8ABB85B7816085BF8BB70F
S113008080648BBF789492B384E0892782BB2FEF7E
S113009083ED90E3215080409040E1F700C00000E0
S11300A0F2CF1F920F920FB60F9211248F939F934A
S11300B09BB380E289278BBB9F918F910F900FBEDA
S10D00C00F901F901895F894FFCFDD
S9030000FC
