:020000040800F2
:1000000000500020E1090008310A0008310A000808
:10001000310A0008310A0008310A00080000000017
:10002000000000000000000000000000310A00088D
:10003000310A000800000000310A0008310A0008F7
:10004000310A0008310A0008310A0008310A0008A4
:10005000310A0008310A0008310A0008310A000894
:10006000310A0008310A0008310A0008310A000884
:10007000310A0008310A0008310A0008310A000874
:10008000310A0008310A0008310A0008310A000864
:10009000310A0008310A0008310A0008310A000854
:1000A000310A0008310A0008310A0008310A000844
:1000B000310A0008310A0008310A0008310A000834
:1000C000310A0008310A0008310A0008310A000824
:1000D000310A0008310A0008310A0008310A000814
:1000E000310A0008310A000800000000310A000847
:1000F000310A0008310A0008310A0008310A0008F4
:10010000310A0008310A0008310A0008310A0008E3
:10011000310A0008310A0008310A0008310A0008D3
:10012000310A0008310A0008310A0008310A0008C3
:1001300010B5054C237833B9044B13B10448AFF321
:1001400000800123237010BD00000020000000008B
:100150007C0A000808B5034B1BB103490348AFF301
:10016000008008BD00000000040000207C0A000898
:1001700080B483B000AF03460A46FB711346BB71DF
:10018000FB79022B00F08680022B00F3C280002B4B
:1001900002D0012B3FD0BCE0604B00221A605F4BC5
:1001A0001B68B979BA7912011143BA791202114365
:1001B000BA7912031143BA7912041143BA791205BC
:1001C0001143BA7912061143BA7912070A4311464C
:1001D000524A4B401360524B00221A60504B1B682E
:1001E000B979BA7912011143BA7912021143BA7975
:1001F00012031143BA7912041143BA79120511435B
:10020000BA7912061143BA7912070A431146444AD1
:100210004B4013607DE0434B00221A60414B1B684A
:10022000B979BA7912011143BA7912021143BA7934
:1002300012031143BA7912041143BA79120511431A
:10024000BA7912061143BA7912070A431146354AA0
:100250004B401360344B00221A60334B1B68B97952
:10026000BA7912011143BA7912021143BA79120311
:100270001143BA7912041143BA7912051143BA79BC
:1002800012061143BA7912070A431146264A4B4017
:1002900013603EE0254B00221A60244B1B68B9799D
:1002A000BA7912011143BA7912021143BA791203D1
:1002B0001143BA7912041143BA7912051143BA797C
:1002C00012061143BA7912070A431146174A4B40E6
:1002D0001360174B00221A60154B1B68B979BA7965
:1002E00012011143BA7912021143BA791203114370
:1002F000BA7912041143BA7912051143BA79120678
:100300001143BA7912070A431146094A4B40136058
:1003100000BF00BF0C37BD4680BC704700080140DD
:1003200004080140000C0140040C01400010014091
:100330000410014080B582B000AF0023FB710221A0
:100340000020FFF715FF032000F040F802E0FB79E2
:100350000133FB71FB79312BF9D80023FB710320AA
:1003600000F034F802E0FB790133FB71FB79312BAB
:10037000F9D80023FB71032000F028F802E0FB7994
:100380000133FB71FB79312BF9D80023FB7102207B
:1003900000F01CF8282000F019F8082000F016F8EA
:1003A000012000F013F8062000F010F80C2000F0F7
:1003B0000DF802E0FB790133FB71FB79C72BF9D80B
:1003C0000023FB7100BF0837BD4680BD80B485B0F7
:1003D00000AF0346FB710023FB73724B1B68714A2D
:1003E00023F008031360FB79DB09DBB203F00103A0
:1003F000002B06D06B4B1B686A4A43F080031360E6
:1004000005E0684B1B68674A23F080031360FB79A3
:100410009B09DBB203F00103002B06D0614B1B6884
:10042000604A43F04003136005E05E4B1B685D4A81
:1004300023F040031360FB795B09DBB203F0010397
:10044000002B06D0574B1B68564A43F0200313601D
:1004500005E0544B1B68534A23F020031360FB79DB
:100460001B09DBB203F00103002B06D04D4B1B68C8
:100470004C4A43F01003136005E04A4B1B68494A9D
:1004800023F010031360474B1B68464A43F00403F4
:10049000136002E0FB7B0133FB73FB7B312BF9D84C
:1004A0000023FB733F4B1B683E4A23F00403136099
:1004B00002E0FB7B0133FB73FB7B312BF9D800237C
:1004C000FB73FB79DB08DBB203F00103002B06D0E2
:1004D000344B1B68334A43F08003136005E0314B13
:1004E0001B68304A23F080031360FB799B08DBB262
:1004F00003F00103002B06D02A4B1B68294A43F066
:100500004003136005E0274B1B68264A23F0400395
:100510001360FB795B08DBB203F00103002B06D00C
:10052000204B1B681F4A43F02003136005E01D4B5E
:100530001B681C4A23F020031360FB7903F00103BE
:10054000002B06D0174B1B68164A43F010031360AC
:1005500005E0144B1B68134A23F010031360114B82
:100560001B68104A43F00403136002E0FB7B013375
:10057000FB73FB7B312BF9D80023FB73094B1B6802
:10058000084A23F00403136002E0FB7B0133FB7392
:10059000FB7B312BF9D80023FB7300BF1437BD461A
:1005A00080BC70470C08014080B485B000AF0346A2
:1005B000FB710023FB73724B1B68714A43F0080305
:1005C0001360FB79DB09DBB203F00103002B06D0DB
:1005D0006B4B1B686A4A43F08003136005E0684B6D
:1005E0001B68674A23F080031360FB799B09DBB229
:1005F00003F00103002B06D0614B1B68604A43F0F7
:100600004003136005E05E4B1B685D4A23F0400326
:100610001360FB795B09DBB203F00103002B06D00A
:10062000574B1B68564A43F02003136005E0544BB8
:100630001B68534A23F020031360FB791B09DBB2CC
:1006400003F00103002B06D04D4B1B684C4A43F0CE
:100650001003136005E04A4B1B68494A23F010035E
:100660001360474B1B68464A43F00403136002E0E3
:10067000FB7B0133FB73FB7B312BF9D80023FB732E
:100680003F4B1B683E4A23F00403136002E0FB7BF0
:100690000133FB73FB7B312BF9D80023FB73FB7910
:1006A000DB08DBB203F00103002B06D0344B1B68E0
:1006B000334A43F08003136005E0314B1B68304A36
:1006C00023F080031360FB799B08DBB203F0010386
:1006D000002B06D02A4B1B68294A43F040031360C5
:1006E00005E0274B1B68264A23F040031360FB7983
:1006F0005B08DBB203F00103002B06D0204B1B6824
:100700001F4A43F02003136005E01D4B1B681C4A81
:1007100023F020031360FB7903F00103002B06D0C4
:10072000174B1B68164A43F01003136005E0144B87
:100730001B68134A23F010031360114B1B68104A07
:1007400043F00403136002E0FB7B0133FB73FB7B8C
:10075000312BF9D80023FB73094B1B68084A23F09F
:100760000403136002E0FB7B0133FB73FB7B312B43
:10077000F9D80023FB7300BF1437BD4680BC704717
:100780000C08014080B586B000AF78600023FB758F
:100790007B68002B03D13020FFF706FF3EE00023EB
:1007A000FB751EE079681F4BA3FB0123DA08134693
:1007B0009B0013445B00CA1AD2B297F9173030324B
:1007C000D2B218333B4403F80C2C7B68154AA2FBC9
:1007D0000323DB087B6097F91730DBB20133DBB210
:1007E000FB757B68002BDDD197F91730DBB2013B3D
:1007F000DBB2FB750EE097F9173018333B4413F862
:100800000C3C1846FFF7D0FE97F91730DBB2013BDE
:10081000DBB2FB7597F91730002BECDA1837BD46C1
:1008200080BD00BFCDCCCCCC80B400AF0E4B1B68DC
:100830000D4A43F00103136000BF0B4B1B6803F02C
:100840000203002BF9D0084B5B68074A23F0010331
:100850005360054B5B68044A23F00203536000BFFA
:10086000BD4680BC704700BF0010024080B485B018
:1008700000AF0346FB710B46BB7113467B7101232E
:10088000FB737B79032B63D0032B7EDC012B02D01F
:10089000022B2DD079E0FB79032B1CD0032B25DC18
:1008A000012B02D0022B0BD020E03B4B5B69BA79C5
:1008B000012101FA02F21146374A0B43536116E057
:1008C000354BDB69BA79012101FA02F21146324A4D
:1008D0000B43D3610BE0304B9B69BA79012101FADC
:1008E00002F211462C4A0B43936100E000BF4CE03A
:1008F000FB79032B1ED0032B28DC012B02D0022B0B
:100900000CD023E0244B5B69BA79012101FA02F291
:10091000D2431146204A0B40536118E01E4BDB695D
:10092000BA79012101FA02F2D24311461A4A0B4068
:10093000D3610CE0184B9B69BA79012101FA02F2EC
:10094000D2431146144A0B40936100E000BF1CE003
:10095000FB79022B02D0032B0BD015E00E4B1B6949
:10096000BA79012101FA02F211460B4A0B431361D5
:100970000AE0094BDB68BA79012101FA02F211465B
:10098000054A0B43D36000BF00BFFB7B18461437FA
:10099000BD4680BC704700BF0010024080B582B0E9
:1009A00000AF0023FB71FFF73FFF0122022103206C
:1009B000FFF75CFFFFF7BEFC00BF0023FB710C20BC
:1009C000FFF704FD00BF0023FB710120FFF7FEFCD1
:1009D00000BF0023FB716420FFF7D4FEFEE7000098
:1009E0000D488546AFF300800C480D490D4A0023A1
:1009F00002E0D458C4500433C4188C42F9D30A4AD4
:100A00000A4C002301E013600432A242FBD300F041
:100A100011F8FFF7C3FFFEE70050002000000020A0
:100A2000000000209C0A0008000000201C0000209C
:100A3000FEE7000070B500260C4D0D4C641BA410A1
:100A4000A64209D100F01AF800260A4D0A4C641B90
:100A5000A410A64205D170BD55F8043B9847013655
:100A6000EEE755F8043B98470136F2E7940A000890
:100A7000940A0008940A0008980A0008F8B500BF14
:100A8000F8BC08BC9E467047F8B500BFF8BC08BC6F
:040A90009E467047C7
:040A94005501000800
:040A98003101000820
:04000005080009E105
:00000001FF
