:100000000C942A000C9434000C9434000C943400AA
:100010000C9434000C9434000C9434000C94340090
:100020000C9434000C9434000C9434000C94340080
:100030000C9434000C9434000C9434000C94340070
:100040000C9434000C9434000C9434000C94340060
:100050000C94340011241FBECFE5D8E0DEBFCDBF25
:100060000E9436000C945F000C9400000E94420035
:100070001DBC1CBC87B3826087BB80E89EE39BBD30
:100080008ABDFBCF81B3806281BB81B3806181BBBC
:100090008FB580688FBD8FB580628FBD8FB5826050
:1000A0008FBD8FB588608FBD8EB580618EBD8EB5DA
:1000B00082608EBD8FE19EE497BD86BD0895F89461
:0200C000FFCF70
:00000001FF
