S00C0000375345472E7372656302
S11300000C942A000C9434000C9434000C943400A6
S11300100C9434000C9434000C9434000C9434008C
S11300200C9434000C9434000C9434000C9434007C
S11300300C9434000C9434000C9434000C9434006C
S11300400C9434000C9434000C9434000C9434005C
S11300500C94340011241FBECFE5D8E0DEBFCDBF21
S11300600E94B1000C94C2000C9400008AB38C6FFF
S11300708ABB08959DEC899F912D112496959695A0
S11300809695990F292F220F220F920F282F291BA3
S1130090922F2BB324602BBB2BB3277F2BBB90FF5A
S11300A004C02BB320612BBB03C02BB32F7E2BBB0F
S11300B091FF04C02BB320622BBB03C02BB32F7D55
S11300C02BBB92FF04C02BB320642BBB03C02BB308
S11300D02F7B2BBB93FF04C09BB390689BBB03C0D7
S11300E09BB39F779BBBEFE3FCE93197F1F700C02B
S11300F000009DEC899F812D112486958695869517
S11301009BB39B7F9BBB9BB398609BBB80FF04C04E
S11301109BB390619BBB03C09BB39F7E9BBB81FF42
S113012004C09BB390629BBB03C09BB39F7D9BBBEE
S113013082FF04C09BB390649BBB03C09BB39F7BB3
S11301409BBB83FF04C08BB380688BBB03C08BB3A2
S11301508F778BBB8FE39CE90197F1F700C0000018
S113016008950E943600D0E001C0D0E0C0E004C091
S11301708D2F0E943A00CF5FC431D0F3DF5FD436B5
S10B0180A9F7F3CFF894FFCFB7
S9030000FC
